:040000008A11FD2F35
:100D6800831203132608F9002708FA002808FB0055
:100D78002908FC0002300310F90DFA0DFB0DFC0DDB
:100D8800FF3E031DBF2E02300310F90DFA0DFB0DB7
:100D9800FC0DFF3E031DC82E7C08F3007B08F20003
:100DA8007A08F1007908F0000030F7007A30F60090
:100DB8001230F5000030F4008A116E277008FF3EEB
:100DC800831603139200831203132908B10028081D
:100DD800B0002708AF002608AE00080083120313EE
:100DE8002608F9002708FA002808FB002908FC0053
:100DF80002300310F90DFA0DFB0DFC0DFF3E031D2B
:100E0800FD2E02300310F90DFA0DFB0DFC0DFF3E0F
:100E1800031D062F7C08F3007B08F2007A08F10016
:100E28007908F0000030F7007A30F6001230F5004B
:100E38000030F4008A116E277008FF3E83160313F2
:100E48009200831203132908B1002808B00027086C
:100E5800AF002608AE00080083120313AA01AB01F5
:100E6800AC01AC0AAD01AD0A0030A9000030A80001
:100E78001330A7008830A6008A11B4268A110030E2
:100E880083120313A9000030A8001330A70088308C
:100E9800A6008A11F2268A1183160317881483166E
:100EA8000313851487100711981618128312031359
:100EB80098178316031787158316031318158312BB
:100EC800031399014130831299008316031398186C
:100ED800662F692F83120313A101F31F802FF009D6
:100EE800F109F209F309F00A0319F10A0319F20AE0
:100EF8000319F30AA101A10AF71F912FF409F509B3
:100F0800F609F709F40A0319F50A0319F60A031989
:100F1800F70A0130F8007808A1060030A500003073
:100F2800A4000030A3000030A2007308720471040A
:100F380070040319E62FA001A00AF31BB12F01309A
:100F4800F8000310F00DF10DF20DF30DF80BA52FBD
:100F58000130F8007808A007A12F0130F80003102D
:100F6800A20DA30DA40DA50DF80BB32F73087702DE
:100F7800031DC82F72087602031DC82F7108750259
:100F8800031DC82F70087402031CD92F7008F402BF
:100F98007108031C710FF5027208031C720FF60228
:100FA8007308031C730FF702221401300310F30CAB
:100FB800F20CF10CF00CFF3E031DDA2F0130A002F9
:100FC800031DB12F21080319F42FA209A309A409AD
:100FD800A509A20A0319A30A0319A40A0319A50A51
:100FE8002508F3002408F2002308F1002208F00085
:080FF800080083018A11302F6B
:04400E00F2FFFFFFBF
:00000001FF
