:100000000A128A11C42D00308A000408840A82076B
:10001000003465346C3465346334743472346F3452
:1000200053346F346D34653420344C3443344434A9
:100030002034483465346C346C346F342034573495
:0A0040006F3472346C346434003401
:100B880083010A128A11492F00300A128A11EF25AF
:100B98000A128A1101300A128A11EF250A128A11E3
:100BA800080001300A128A11EF250A128A110C3046
:100BB8000A128A11EF250A128A11080001300A1256
:100BC8008A11EF250A128A1108300A128A11EF25B4
:100BD8000A128A110800F30083120313871273089C
:100BE8000A128A1109260A128A118312031387141A
:100BF8001A30F200F830F100F10B002EF20B002E43
:100C080064008312031387100800F000701C0D2E77
:100C18000E2E122E831203130816152E8312031399
:100C28000812F01C182E192E1B2E88161C2E88123E
:100C3800701D1F2E202E222E0817232E0813F01D9C
:100C4800262E272E292E88172B2E88132B2E0800A8
:100C5800F600F701F801442E7708760784000A1297
:100C68008A1103200A128A110A128A1153260A12BB
:100C78008A110130F7070318F80A0030F807442EE4
:100C88007708760784000A128A1103200A128A114B
:100C98000038031D502E512E302E522E0800F5001C
:100CA80075080F39F1007108F3007508F039F10083
:100CB8007108F4008312031387167408F1000430D6
:100CC8000310F10CFF3E031D642E71080A128A11ED
:100CD80009260A128A118312031387142130F2009D
:100CE8007630F100F10B762EF20B762E640083122B
:100CF8000313871073080A128A1109260A128A1127
:100D08008312031387142130F2007630F100F10BBF
:100D18008B2EF20B8B2E64008312031387100800AE
:100D2800F7007708013A031D9A2E9B2EBF2E7408F0
:100D3800803EF5007508F8007808F50004300310C7
:100D4800F50CFF3E031DA32E7508F6007608F90082
:100D58007408803E0F39F5007508FA0079080A1200
:100D68008A11EF250A128A117A080A128A11EF25C8
:100D78000A128A11EA2E7708023A031DC42EC52EDC
:100D8800EA2E7408C03EF5007508F8007808F500EA
:100D980004300310F50CFF3E031DCD2E7508F60038
:100DA8007608F9007408C03E0F39F5007508FA0096
:100DB80079080A128A11EF250A128A117A080A128A
:100DC8008A11EF250A128A11EA2EEA2E080000304D
:100DD8000A128A1109260A128A118230F500DD30BA
:100DE800F400F40BF52EF50BF52EFA2E03300A124B
:100DF8008A11EF250A128A112130F5007630F400A5
:100E0800F40B042FF50B042F640003300A128A1127
:100E1800EF250A128A114830F5006C30F400F40B03
:100E2800132FF50B132F640003300A128A11EF25D4
:100E38000A128A1102300A128A11EF250A128A113F
:100E480002300A128A11EF250A128A1108300A1292
:100E58008A11EF250A128A1100300A128A11EF2529
:100E68000A128A110C300A128A11EF250A128A1105
:100E780000300A128A11EF250A128A1106300A1266
:100E88008A11EF250A128A110800831603138601B6
:100E98000A128A11EB260A128A11522FF40103143E
:100EA800F40D01300A128A1194260A128A110130AF
:100EB8000A128A112C260A128A1183120313A0011E
:100EC800A1012108803AFF0080307F02031D6E2FA8
:100ED8000F302002031C712F722F742F9B2F9B2F12
:100EE8001A30FD004530FC007E30FB00FB0B7A2FEA
:100EF800FC0B7A2FFD0B7A2F0A128A11E2250A12AF
:100F08008A11013083120313A0070318A10A0030C5
:100F1800A1072108803AFF0080307F02031D962F29
:100F28000F302002031C992F9A2F742F9B2F8312A6
:100F38000313A001A1012108803AFF0080307F023D
:100F4800031DA82F0F302002031CAB2FAC2FAE2F90
:100F5800D52FD52F1A30FD004530FC007E30FB0020
:100F6800FB0BB42FFC0BB42FFD0BB42F0A128A1104
:100F7800D5250A128A11013083120313A00703181A
:100F8800A10A0030A1072108803AFF0080307F02C3
:100F9800031DD02F0F302002031CD32FD42FAE2FC8
:100FA800D52F0A128A11C8250A128A11F4010314CE
:100FB800F40D02300A128A1194260A128A11653039
:100FC8000A128A1153260A128A1153300A128A11F8
:100FD80053260A128A113330FD008930FC00003094
:100FE800FB00FB0BF52FFC0BF52FFD0BF52F522FFC
:080FF800522F0A128A11002891
:00000001FF
